:100000000C942A000C94F2010C9447000C944700C5
:100010000C9447000C9447000C9447000C94470044
:100020000C9447000C9447000C9447000C94470034
:100030000C9447000C9447000C9447000C94470024
:100040000C9447000C9447000C9447000C94470014
:100050000C94470011241FBECFE5D8E0DEBFCDBF12
:1000600010E0A0E6B0E0ECEAF1E102C005900D92EC
:10007000A236B107D9F720E0A2E6B0E001C01D9298
:10008000A436B207E1F70E94B7020C94D4080C948E
:1000900000000F931F93CF93DF93CDB7DEB710927D
:1000A000630082E08093620060E081E40E942E029F
:1000B00062E082E40E942E028091600090916100D3
:1000C0000E947A0560E081E40E94400262E082E4DE
:1000D0000E94400280916300813011F40E94C800A8
:1000E00081E08093620080916000909161008C01BA
:1000F00021E042E461E081E40E94630261E081E486
:100100000E94400261E082E40E944002809163000C
:10011000813011F40E94C8001092620062E081E414
:100120000E942E0260E082E40E942E028091600014
:10013000909161000E947A0562E081E40E94400291
:1001400060E082E40E94400280916300813011F4FB
:100150000E94C80081E080936200809160009091CD
:1001600061008C0121E042E461E081E40E946302CD
:1001700061E081E40E94400261E082E40E9440026A
:1001800080916300813009F08CCF0E94C80089CF34
:100190000F931F93CF93DF93CDB7DEB780916200AB
:1001A000882F90E08130910509F45EC0823091057E
:1001B00021F0892B09F4AFC0DCC060E081E40E942B
:1001C0002E0262E082E40E942E02809160009091F3
:1001D00061000E947A0560E081E40E94400262E0D2
:1001E00082E40E94400280916000909161008C0145
:1001F00021E042E461E081E40E94630261E081E485
:100200000E94400261E082E40E94400262E081E4D8
:100210000E942E0260E082E40E942E028091600023
:10022000909161000E947A0562E081E40E944002A0
:1002300080916000909161008C0121E042E461E0D6
:1002400081E40E94630261E081E40E94400261E077
:1002500082E40E94400260E082E40E944002109228
:1002600063000E94490088C060E081E40E942E0281
:1002700062E082E40E942E02809160009091610011
:100280000E947A0560E081E40E94400262E082E41C
:100290000E94400280916000909161008C0121E0F9
:1002A00042E461E081E40E94630261E081E40E9433
:1002B000400261E082E40E94400262E081E40E9428
:1002C0002E0260E082E40E942E02809160009091F4
:1002D00061000E947A0562E081E40E944002809100
:1002E0006000909161008C0121E042E461E081E4D2
:1002F0000E94630261E081E40E94400261E082E4C6
:100300000E94400260E082E40E944002109263007A
:100310000E94490031C062E081E40E942E0260E048
:1003200082E40E942E0280916000909161000E9400
:100330007A0562E081E40E94400280916000909121
:1003400061008C0121E042E461E081E40E946302EB
:1003500061E081E40E94400261E082E40E94400288
:1003600060E082E40E944002109263000E94490013
:1003700003C00E94490000000000DF91CF911F914F
:100380000F910895CF93DF93CDB7DEB70E94490058
:100390000000DF91CF910895CF93DF93CDB7DEB703
:1003A0000E944F0562E084E40E940A0260E081E45A
:1003B0000E941C0261E081E40E941C0262E081E470
:1003C0000E941C0260E082E40E941C0261E082E460
:1003D0000E941C0262E082E40E941C020000DF9185
:1003E000CF9108951F920F9200905F000F921124F9
:1003F0008F93CF93DF93CDB7DEB781E08093630017
:100400000000DF91CF918F910F9000925F000F90CD
:100410001F901895CF93DF9300D0CDB7DEB78983B7
:100420006A8340E06A8189810E94C40200000F90C3
:100430000F90DF91CF910895CF93DF9300D0CDB788
:10044000DEB789836A8341E06A8189810E94C402A0
:1004500000000F900F90DF91CF910895CF93DF931D
:1004600000D0CDB7DEB789836A8341E06A81898194
:100470000E94C20300000F900F90DF91CF9108956A
:10048000CF93DF9300D0CDB7DEB789836A8340E096
:100490006A8189810E94C20300000F900F90DF9152
:1004A000CF910895CF93DF9300D0CDB7DEB7898386
:1004B0006A836A8189810E94C00400000F900F90B6
:1004C000DF91CF9108950F931F93CF93DF93CDB713
:1004D000DEB72A970FB6F894DEBF0FBECDBF8D836F
:1004E0006E834F8328871A87098789859A85929515
:1004F00082958F7089279F7089279C01AEE3BAE0AF
:100500000E94C5089C838B831A8219821DC06E814C
:100510008D810E94520268858F810E94520288EC70
:1005200090E00E947A056E818D810E94520268855A
:100530008F810E94520288EC90E00E947A058981A6
:100540009A8101969A83898329813A818B819C8142
:1005500028173907E0F200002A960FB6F894DEBF9C
:100560000FBECDBFDF91CF911F910F910895CF9313
:10057000DF93CDB7DEB70E94CC010E94C20180E0BC
:1005800090E0DF91CF910895CF93DF9300D000D01A
:10059000CDB7DEB78A836B834C8381E089838A8100
:1005A000813451F08A81823439F08A81833421F098
:1005B0008A81843409F0DDC08B81883008F0D9C08D
:1005C0008C81882321F08C81813009F0D2C08A810E
:1005D000882F90E08234910509F43EC08334910560
:1005E00024F48134910551F0C1C08334910509F49C
:1005F00061C08434910509F48BC0B8C08C8181300E
:10060000A9F48AE390E02AE330E0F9012081622F27
:100610002B81422F50E021E030E002C0220F331F37
:100620004A95E2F7262BFC012083A2C08AE390E0E2
:100630002AE330E0F9012081622F2B81422F50E024
:1006400021E030E002C0220F331F4A95E2F72095E7
:100650002623FC0120838CC08C818130A9F487E3A0
:1006600090E027E330E0F9012081622F2B81422FB7
:1006700050E021E030E002C0220F331F4A95E2F73C
:10068000262BFC01208374C087E390E027E330E051
:10069000F9012081622F2B81422F50E021E030E0D0
:1006A00002C0220F331F4A95E2F720952623FC0152
:1006B00020835EC08C818130A9F484E390E024E340
:1006C00030E0F9012081622F2B81422F50E021E0A0
:1006D00030E002C0220F331F4A95E2F7262BFC01BF
:1006E000208346C084E390E024E330E0F9012081D8
:1006F000622F2B81422F50E021E030E002C0220F18
:10070000331F4A95E2F720952623FC01208330C051
:100710008C818130A9F481E390E021E330E0F9019C
:100720002081622F2B81422F50E021E030E002C077
:10073000220F331F4A95E2F7262BFC01208318C0B5
:1007400081E390E021E330E0F9012081622F2B81E9
:10075000422F50E021E030E002C0220F331F4A95C3
:10076000E2F720952623FC01208302C019820000B5
:1007700001C0198289810F900F900F900F90DF9127
:10078000CF910895CF93DF9300D000D0CDB7DEB7DF
:100790008A836B834C8381E089838A81813451F021
:1007A0008A81823439F08A81833421F08A818434C9
:1007B00009F0DDC08B81883008F0D9C08C81813090
:1007C00021F08C81882309F0D2C08A81882F90E0A3
:1007D0008234910509F43EC08334910524F48134B8
:1007E000910551F0C1C08334910509F461C084348E
:1007F000910509F48BC0B8C08C818130A9F48BE3DA
:1008000090E02BE330E0F9012081622F2B81422F11
:1008100050E021E030E002C0220F331F4A95E2F79A
:10082000262BFC012083A2C08BE390E02BE330E079
:10083000F9012081622F2B81422F50E021E030E02E
:1008400002C0220F331F4A95E2F720952623FC01B0
:1008500020838CC08C818130A9F488E390E028E368
:1008600030E0F9012081622F2B81422F50E021E0FE
:1008700030E002C0220F331F4A95E2F7262BFC011D
:10088000208374C088E390E028E330E0F901208100
:10089000622F2B81422F50E021E030E002C0220F76
:1008A000331F4A95E2F720952623FC0120835EC082
:1008B0008C818130A9F485E390E025E330E0F901F3
:1008C0002081622F2B81422F50E021E030E002C0D6
:1008D000220F331F4A95E2F7262BFC01208346C0E6
:1008E00085E390E025E330E0F9012081622F2B8140
:1008F000422F50E021E030E002C0220F331F4A9522
:10090000E2F720952623FC01208330C08C818130C2
:10091000A9F482E390E022E330E0F9012081622F24
:100920002B81422F50E021E030E002C0220F331F24
:100930004A95E2F7262BFC01208318C082E390E061
:1009400022E330E0F9012081622F2B81422F50E019
:1009500021E030E002C0220F331F4A95E2F72095D4
:100960002623FC01208302C01982000001C01982E5
:1009700089810F900F900F900F90DF91CF91089584
:10098000CF93DF9300D01F92CDB7DEB78A836B83FE
:1009900081E089838A81813451F08A81823439F0FF
:1009A0008A81833421F08A81843409F070C08B817C
:1009B000883008F06CC08A81882F90E082349105DD
:1009C00021F18334910524F48134910549F05CC010
:1009D0008334910579F18434910509F440C054C001
:1009E0008BE390E02BE330E0F9012081622F2B8133
:1009F000422F50E021E030E002C0220F331F4A9521
:100A0000E2F72627FC01208341C088E390E028E339
:100A100030E0F9012081622F2B81422F50E021E04C
:100A200030E002C0220F331F4A95E2F72627FC016F
:100A300020832CC085E390E025E330E0F90120819C
:100A4000622F2B81422F50E021E030E002C0220FC4
:100A5000331F4A95E2F72627FC01208317C082E363
:100A600090E022E330E0F9012081622F2B81422FB8
:100A700050E021E030E002C0220F331F4A95E2F738
:100A80002627FC01208302C01982000001C01982C0
:100A900089810F900F900F90DF91CF910895CF93A0
:100AA000DF93CDB7DEB7789485E590E025E530E0BB
:100AB000F90120812360FC0120838BE590E02BE588
:100AC00030E0F90120812064FC0120830000DF91E7
:100AD000CF910895CF93DF93CDB7DEB783E590E054
:100AE000FC01108282E590E0FC0110820000DF91A1
:100AF000CF910895CF92DF92EF92FF92CF93DF9341
:100B0000CDB7DEB762970FB6F894DEBF0FBECDBF8C
:100B10009A8B898B0E946A051E821D8289899A8917
:100B200098878F838FE692E1A3E0B2E489879A8762
:100B3000AB87BC878FE692E1A3E0BEE38D879E87FB
:100B4000AF87B88B8F819885CC01A0E0B0E0BC0165
:100B5000CD010E94D207DC01CB0129853A854B8566
:100B60005C85BC01CD010E942507882364F58F8137
:100B70009885CC01A0E0B0E0BC01CD010E94D20775
:100B8000DC01CB019C01AD0169857A858B859C8553
:100B90000E94A106DC01CB012D853E854F85588939
:100BA000BC01CD010E942A07DC01CB01BC01CD01B3
:100BB0000E94A307DC01CB019C838B8381E090E042
:100BC0009A83898374C069857A858B859C850E9408
:100BD0009C07DC01CB019C018F8198852817390780
:100BE00039F41C821B8281E090E09A8389835FC084
:100BF0008F819885CC01A0E0B0E0BC01CD010E94BE
:100C0000D207DC01CB0129853A854B855C85BC0187
:100C1000CD010E942A07DC01CB01BC01CD010E945D
:100C20000E07DC01CB01BC01CD010E94A307DC0152
:100C3000CB019A8389838F819885CC01A0E0B0E0B5
:100C4000BC01CD010E94D207DC01CB012D853E8580
:100C50004F855889BC01CD010E942A07DC01CB01D8
:100C60006C017D0189819A81CC01A0E0B0E0BC01DA
:100C7000CD010E94D207DC01CB019C01AD01C7016F
:100C8000B6010E942A07DC01CB019C01AD0160E0A6
:100C900070E080E893E40E94A106DC01CB01BC0176
:100CA000CD010E94A307DC01CB019C838B8382E5ED
:100CB00090E02B81FC01208383E590E023E530E088
:100CC000F90120812160FC01208383E590E023E588
:100CD00030E0F90120812460FC01208319C000006C
:100CE00088E590E0FC018081882F90E08170992751
:100CF000892BB1F388E590E028E530E0F901208107
:100D00002160FC0120838D819E8101969E838D83CD
:100D10002D813E8189819A812817390700F383E567
:100D200090E0FC011082000062960FB6F894DEBFDE
:100D30000FBECDBFDF91CF91FF90EF90DF90CF90AE
:100D400008955058BB27AA270E94B9060C9473082F
:100D50000E94650838F00E946C0820F039F49F3F2B
:100D600019F426F40C9462080EF4E095E7FB0C9459
:100D70003308E92F0E94840858F3BA1762077307F3
:100D80008407950720F079F4A6F50C94BE080EF4BC
:100D9000E0950B2EBA2FA02D0B01B90190010C018B
:100DA000CA01A0011124FF27591B99F0593F50F4A3
:100DB000503E68F11A16F040A22F232F342F4427FB
:100DC000585FF3CF469537952795A795F0405395F3
:100DD000C9F77EF41F16BA0B620B730B840BBAF0C3
:100DE0009150A1F0FF0FBB1F661F771F881FC2F72E
:100DF0000EC0BA0F621F731F841F48F48795779542
:100E00006795B795F7959E3F08F0B0CF9395880FFB
:100E100008F09927EE0F9795879508950E94A608E8
:100E200090F09F3748F4911116F40C94BF0860E0DD
:100E300070E080E89FE3089526F01B16611D711D88
:100E4000811D0C9439080C9454080E940F0808F472
:100E500081E008950E943E070C9473080E946C087C
:100E600058F00E94650840F029F45F3F29F00C9487
:100E7000330851110C94BF080C9462080E94840836
:100E800068F39923B1F3552391F3951B550BBB27B9
:100E9000AA2762177307840738F09F5F5F4F220FFE
:100EA000331F441FAA1FA9F335D00E2E3AF0E0E8F5
:100EB00032D091505040E695001CCAF72BD0FE2F3F
:100EC00029D0660F771F881FBB1F261737074807D3
:100ED000AB07B0E809F0BB0B802DBF01FF2793588B
:100EE0005F4F3AF09E3F510578F00C9433080C9414
:100EF000BF085F3FE4F3983ED4F3869577956795F6
:100F0000B795F7959F5FC9F7880F911D96958795BF
:100F100097F90895E1E0660F771F881FBB1F6217DE
:100F200073078407BA0720F0621B730B840BBA0B9C
:100F3000EE1F88F7E09508950E94A3076894B11109
:100F40000C94BF0808950E948C0888F09F5798F071
:100F5000B92F9927B751B0F0E1F0660F771F881FBE
:100F6000991F1AF0BA95C9F714C0B13091F00E94D8
:100F7000BE08B1E008950C94BE08672F782F88272B
:100F8000B85F39F0B93FCCF3869577956795B395FF
:100F9000D9F73EF490958095709561957F4F8F4F6E
:100FA0009F4F0895E89409C097FB3EF49095809573
:100FB000709561957F4F8F4F9F4F9923A9F0F92F1F
:100FC00096E9BB279395F695879577956795B7959D
:100FD000F111F8CFFAF4BB0F11F460FF1BC06F5F83
:100FE0007F4F8F4F9F4F16C0882311F096E911C095
:100FF000772321F09EE8872F762F05C0662371F0B6
:1010000096E8862F70E060E02AF09A95660F771FC9
:10101000881FDAF7880F9695879597F90895990FA5
:101020000008550FAA0BE0E8FEEF16161706E807B2
:10103000F907C0F012161306E407F50798F0621BD3
:10104000730B840B950B39F40A2661F0232B242BA8
:10105000252B21F408950A2609F4A140A6958FEFC7
:10106000811D811D089597F99F6780E870E060E019
:101070000895882371F4772321F09850872B762FD9
:1010800007C0662311F499270DC09051862B70E09C
:1010900060E02AF09A95660F771F881FDAF7880FAD
:1010A0009695879597F908959F3F31F0915020F4D8
:1010B000879577956795B795880F911D9695879534
:1010C00097F908959FEF80EC089500240A9416166E
:1010D000170618060906089500240A941216130626
:1010E000140605060895092E0394000C11F48823B4
:1010F00052F0BB0F40F4BF2B11F460FF04C06F5FD0
:101100007F4F8F4F9F4F089557FD9058440F551FA5
:1011100059F05F3F71F04795880F97FB991F61F079
:101120009F3F79F087950895121613061406551FF0
:10113000F2CF4695F1DF08C0161617061806991F5C
:10114000F1CF869571056105089408950E948C0879
:10115000A0F0BEE7B91788F4BB279F3860F41616D5
:10116000B11D672F782F8827985FF7CF86957795E1
:101170006795B11D93959639C8F30895E894BB27F8
:1011800066277727CB0197F90895A29FB001B39FF7
:10119000C001A39F700D811D1124911DB29F700D80
:0C11A000811D1124911D0895F894FFCFCB
:0211AC008813A6
:00000001FF
